{
  "contractName": "HashStorage",
  "abi": [
    {
      "constant": true,
      "inputs": [
        {
          "name": "_receiver",
          "type": "address"
        },
        {
          "name": "_hash",
          "type": "bytes32"
        }
      ],
      "name": "verify",
      "outputs": [
        {
          "name": "",
          "type": "bool"
        }
      ],
      "payable": false,
      "stateMutability": "view",
      "type": "function"
    },
    {
      "constant": false,
      "inputs": [
        {
          "name": "_receiver",
          "type": "address"
        },
        {
          "name": "_hash",
          "type": "bytes32"
        }
      ],
      "name": "add",
      "outputs": [
        {
          "name": "",
          "type": "bool"
        }
      ],
      "payable": false,
      "stateMutability": "nonpayable",
      "type": "function"
    },
    {
      "constant": false,
      "inputs": [
        {
          "name": "_receiver",
          "type": "address"
        },
        {
          "name": "_hash",
          "type": "bytes32"
        }
      ],
      "name": "revoke",
      "outputs": [
        {
          "name": "",
          "type": "bool"
        }
      ],
      "payable": false,
      "stateMutability": "nonpayable",
      "type": "function"
    },
    {
      "constant": true,
      "inputs": [],
      "name": "owner",
      "outputs": [
        {
          "name": "",
          "type": "address"
        }
      ],
      "payable": false,
      "stateMutability": "view",
      "type": "function"
    },
    {
      "inputs": [],
      "payable": false,
      "stateMutability": "nonpayable",
      "type": "constructor"
    }
  ],
  "bytecode": "0x6060604052341561000f57600080fd5b336000806101000a81548173ffffffffffffffffffffffffffffffffffffffff021916908373ffffffffffffffffffffffffffffffffffffffff1602179055506107828061005e6000396000f300606060405260043610610062576000357c0100000000000000000000000000000000000000000000000000000000900463ffffffff1680630dd5ee1b146100675780632d580ef6146100c557806388e62721146101235780638da5cb5b14610181575b600080fd5b341561007257600080fd5b6100ab600480803573ffffffffffffffffffffffffffffffffffffffff16906020019091908035600019169060200190919050506101d6565b604051808215151515815260200191505060405180910390f35b34156100d057600080fd5b610109600480803573ffffffffffffffffffffffffffffffffffffffff1690602001909190803560001916906020019091905050610308565b604051808215151515815260200191505060405180910390f35b341561012e57600080fd5b610167600480803573ffffffffffffffffffffffffffffffffffffffff1690602001909190803560001916906020019091905050610501565b604051808215151515815260200191505060405180910390f35b341561018c57600080fd5b6101946106e0565b604051808273ffffffffffffffffffffffffffffffffffffffff1673ffffffffffffffffffffffffffffffffffffffff16815260200191505060405180910390f35b600080600073ffffffffffffffffffffffffffffffffffffffff168473ffffffffffffffffffffffffffffffffffffffff161415151561021557600080fd5b60006001026000191683600019161415151561023057600080fd5b600090505b600160008573ffffffffffffffffffffffffffffffffffffffff1673ffffffffffffffffffffffffffffffffffffffff168152602001908152602001600020805490508110156102fc578260001916600160008673ffffffffffffffffffffffffffffffffffffffff1673ffffffffffffffffffffffffffffffffffffffff168152602001908152602001600020828154811015156102d057fe5b9060005260206000209001546000191614156102ef5760019150610301565b8080600101915050610235565b600091505b5092915050565b6000806000809054906101000a900473ffffffffffffffffffffffffffffffffffffffff1673ffffffffffffffffffffffffffffffffffffffff163373ffffffffffffffffffffffffffffffffffffffff1614151561036657600080fd5b600073ffffffffffffffffffffffffffffffffffffffff168473ffffffffffffffffffffffffffffffffffffffff16141515156103a257600080fd5b6000600102600019168360001916141515156103bd57600080fd5b600090505b600160008573ffffffffffffffffffffffffffffffffffffffff1673ffffffffffffffffffffffffffffffffffffffff16815260200190815260200160002080549050811015610489578260001916600160008673ffffffffffffffffffffffffffffffffffffffff1673ffffffffffffffffffffffffffffffffffffffff1681526020019081526020016000208281548110151561045d57fe5b90600052602060002090015460001916141561047c57600091506104fa565b80806001019150506103c2565b600160008573ffffffffffffffffffffffffffffffffffffffff1673ffffffffffffffffffffffffffffffffffffffff16815260200190815260200160002080548060010182816104da9190610705565b916000526020600020900160008590919091509060001916905550600191505b5092915050565b6000806000809054906101000a900473ffffffffffffffffffffffffffffffffffffffff1673ffffffffffffffffffffffffffffffffffffffff163373ffffffffffffffffffffffffffffffffffffffff1614151561055f57600080fd5b600073ffffffffffffffffffffffffffffffffffffffff168473ffffffffffffffffffffffffffffffffffffffff161415151561059b57600080fd5b6000600102600019168360001916141515156105b657600080fd5b600090505b600160008573ffffffffffffffffffffffffffffffffffffffff1673ffffffffffffffffffffffffffffffffffffffff168152602001908152602001600020805490508110156106d5578260001916600160008673ffffffffffffffffffffffffffffffffffffffff1673ffffffffffffffffffffffffffffffffffffffff1681526020019081526020016000208281548110151561065657fe5b9060005260206000209001546000191614156106c857600160008573ffffffffffffffffffffffffffffffffffffffff1673ffffffffffffffffffffffffffffffffffffffff168152602001908152602001600020818154811015156106b857fe5b9060005260206000209001600090555b80806001019150506105bb565b600191505092915050565b6000809054906101000a900473ffffffffffffffffffffffffffffffffffffffff1681565b81548183558181151161072c5781836000526020600020918201910161072b9190610731565b5b505050565b61075391905b8082111561074f576000816000905550600101610737565b5090565b905600a165627a7a723058204fd5eda87a06f9185f89bac186f65e4d2c0c5c060f734f87bcd3ca3d397b6db10029",
  "source": "pragma solidity ^0.4.4; // Require version 0.4.4 or newer\n\ncontract HashStorage {\n\n  address public owner;\n\n  mapping(address => bytes32[]) hashes;\n\n  function HashStorage() public {\n    owner = msg.sender;\n  }\n\n  /*\n    Modifiers can be used to change the body of a function (by putting it between the parameter list and function body).\n    If this modifier is used, it will prepend a check that only passes if the function is called from a certain address.\n  */\n  modifier onlyOwner() {\n    require(msg.sender == owner);\n    /*\n    Do not forget the \"_;\"! It will be replaced by the actual function body when the modifier is used.\n    */\n    _;\n  }\n\n  /*\n    Associates a 32-byte hash with the _receiver address.\n    The onlyOwner modifier ensures that only the creator (=owner) of this contract can add hashes.\n  */\n  function add(address _receiver, bytes32 _hash) public onlyOwner returns (bool) {\n    require(_receiver != address(0)); // address(0) returns the empty address\n    require(_hash != bytes32(0)); // bytes32(0) returns the empty hash\n\n    // First check if hash is already associated with the _receiver address.\n    for (uint i = 0; i < hashes[_receiver].length; i++) {\n      if(hashes[_receiver][i] == _hash){\n        return false;\n      }\n    }\n\n    hashes[_receiver].push(_hash);\n\n    return true;\n  }\n\n  function revoke(address _receiver, bytes32 _hash) public onlyOwner returns (bool) {\n    require(_receiver != address(0));\n    require(_hash != bytes32(0));\n\n    for (uint i = 0; i < hashes[_receiver].length; i++) {\n      if(hashes[_receiver][i] == _hash){\n        delete hashes[_receiver][i];\n      }\n    }\n\n    return true;\n  }\n\n  /*\n    Everyone may verify that a given _hash is associated with a _receiver address.\n  */\n  function verify(address _receiver, bytes32 _hash) public constant returns (bool) {\n    require(_receiver != address(0));\n    require(_hash != bytes32(0));\n\n    for (uint i = 0; i < hashes[_receiver].length; i++){\n      if(hashes[_receiver][i] == _hash){\n        return true;\n      }\n    }\n\n    return false;\n  }\n}\n",
  "sourcePath": "/home/hidde-jan/src/studybits/lb-handson/contracts/HashStorage.sol",
  "compiler": {
    "name": "solc",
    "version": "0.4.18+commit.9cf6e910.Emscripten.clang"
  },
  "schemaVersion": "1.0.1",
  "updatedAt": "2017-12-11T20:39:24.159Z"
}